:020000020000FC
:040000000C940A0052
:100010000C9447010DE304B905B900E007B902E902
:100020000AB90BB902E0009368000EE000936C007F
:1000300007E610E00093C4001093C50008E00093A9
:10004000C10006E00093C20008E71CE625E032ECA0
:100050007894A0E0B1E00E9462009FEFA0E0B1E0E0
:10006000C0E0D3E082E09FEF3D910E949500362FE3
:100070000E94A700372F0E94A7009A95A9F78A959A
:1000800091F782E03D910E949500362F0E94A700D3
:10009000372F0E94A7008A95A9F7A0E0B1E00E943F
:1000A000A9005527402F0E94E2005395412F0E943E
:1000B000E2005395422F0E94E2005395432F0E9485
:1000C000E200EFCF90E80E946A000E9490009A95AB
:1000D000D1F70895402F512F622F732F8DE0771F96
:1000E000661F551F441F8A95D1F704271527262719
:1000F000372781E177956795579547958A95D1F789
:10010000042715272627372785E0771F661F551FE9
:10011000441F8A95D1F704271527262737270895E6
:100120000D931D932D933D93089560E070E094E04E
:10013000379567959A95E1F794E0379577959A9575
:10014000E1F794E0679577959A95E1F708953993EB
:10015000089582E09FEF099110E0E00FF11F9A955A
:10016000D1F78A95B9F7099110E0E00FF11F0991D5
:1001700010E0E00FF11F0E94BE00089594E000E03F
:1001800010E020E030E08894E79507958894F79593
:10019000279588949A95C1F794E0E79517958894E8
:1001A000F795379588949A95C1F7889494E0889448
:1001B00007958894179588942795889437959A95EC
:1001C000B1F708950E9407015030C9F05130C9F0CD
:1001D0005230C9F05330C9F00E94F400462F0E94FB
:1001E000F4005C9A5C980895E8E05F98469510F0FA
:1001F000289801C0289A5F9AEA95B9F7089560E1B6
:10020000EBCF60E2E9CF60E4E7CF60E8E5CF4030D4
:10021000F1F04130F1F04230F1F04330F1F0443090
:10022000F1F04530F1F04630F1F04730F1F0483070
:10023000F1F04930F1F04A30F1F04B30F1F04C3050
:10024000F1F04D30F1F04E30F1F04F30F1F043E08D
:1002500008954FE9089545E208954DE0089549E96C
:10026000089549E4089541E408954FE1089541E077
:10027000089549E1089541E1089541EC089543E668
:10028000089545E8089541E6089541E708956FB659
:1002900076B00E944D016FBE1895C0E0D3E054E0E7
:1002A0009FEF89910E945F019A95D9F75A95C1F7FE
:1002B00054E089910E945F015A95D9F70895909171
:0C02C000C00095FFFCCF8093C60008959D
:00000001FF
