:020000020000FC
:040000000C940A0052
:100010000C945A0007E610E00093C4001093C5004A
:1000200000E10093C1000EE00093C20002E00093E3
:1000300068000EE000936C000DE304B905B900E020
:1000400007B900E90AB95F985C98E0E07894FAE0B3
:100050000000E130E9F7C5E0D1E0A0E0B1E00E94A6
:100060005800642F0E945800742F0E9475000E944F
:100070007300FA95A1F70E944E005527402F0E9469
:10008000AB005395412F0E94AB005395422F0E9425
:10009000AB005395432F0E94AB00EFCF35E00D919D
:1000A00010E0E00FF11F3A95D1F70E948700089504
:1000B00049910895AFB7B6B15AE0C5E0D1E00E94CA
:1000C000620018950E946A000E9471005A95D1F74B
:1000D000E1E008951091C00015FFFCCFE090C6004C
:1000E0000895E99208958D93089580E06795879526
:1000F0006795879567958795679587957795879590
:10010000779587957795879577958795089594E066
:1001100000E010E020E030E08894E79507958894AF
:10012000F795279588949A95C1F794E0E7951795E8
:100130008894F795379588949A95C1F7889494E0B8
:10014000889407958894179588942795889437956F
:100150009A95B1F708950E94D0005030C9F05130FF
:10016000C9F05230C9F05330C9F00E94BD00462F8B
:100170000E94BD005C9A5C980895E8E05F984695FF
:1001800010F0289801C0289A5F9AEA95B9F7089567
:1001900060E1EBCF60E2E9CF60E4E7CF60E8E5CF74
:1001A0004030F1F04130F1F04230F1F04330F1F005
:1001B0004430F1F04530F1F04630F1F04730F1F0E5
:1001C0004830F1F04930F1F04A30F1F04B30F1F0C5
:1001D0004C30F1F04D30F1F04E30F1F04F30F1F0A5
:1001E00043E008954FE9089545E208954DE00895EC
:1001F00049E9089549E4089541E408954FE10895D7
:1002000041E0089549E1089541E1089541EC0895E0
:1002100043E6089545E8089541E6089541E70895C5
:00000001FF
