:020000020000FC
:040000000C940A0052
:100010000C9483010DE304B905B900E007B902E9C6
:100020000AB90BB902E0009368000EE000936C007F
:1000300007E610E00093C4001093C50008E00093A9
:10004000C10006E00093C20008E71CE625E032ECA0
:100050007894A0E0B1E00E9473009FEFA0E0B1E0CF
:10006000C0E0D3E09FEF3D910E94A600262F0E94A2
:10007000F3000E94B800272F0E94F3000E94B800EE
:100080009A9589F79FEF3D910E94A6000E94F30088
:100090000E94B8000E94F3000E94B8009A9599F758
:1000A00092E03D910E94A6000E94F3000E94B800D9
:1000B0000E94F3000E94B8009A9599F7A0E0B1E081
:1000C0000E94BA005527402F0E941E015395412FD0
:1000D0000E941E015395422F0E941E015395432FEB
:1000E0000E941E01EFCF90E80E947B000E94A100B9
:1000F0009A95D1F70895402F512F622F732F8DE0DD
:10010000771F661F551F441F8A95D1F704271527AF
:100110002627372781E177956795579547958A95E3
:10012000D1F7042715272627372785E0771F661F75
:10013000551F441F8A95D1F70427152726273727EF
:1001400008950D931D932D933D93089560E070E005
:1001500094E0379567959A95E1F794E03795779510
:100160009A95E1F794E0679577959A95E1F7089568
:100170002993089582E09FEF099110E0E00FF11FAD
:100180009A95D1F78A95B9F7099110E0E00FF11F20
:10019000099110E0E00FF11F0E94CF00089594E054
:1001A00000E010E020E030E08894E795079588941F
:1001B000F795279588949A95C1F794E0E795179558
:1001C0008894F795379588949A95C1F7889494E028
:1001D00088940795889417958894279588943795DF
:1001E0009A95B1F70895889400E010E040E080E02F
:1001F00050E0E0E0F0E02795881F2795441F279501
:10020000111F2795001F502F51275827E02FE42753
:10021000E827F12FF427F82720E05795221FE795CC
:10022000221F0795221FF795221F1795221F47951A
:10023000221F8795221F8894221F08950E94430140
:100240005030C9F05130C9F05230C9F05330C9F0C4
:100250000E943001462F0E9430015C9A5C980895FC
:10026000E8E05F98469510F0289801C0289A5F9AB8
:10027000EA95B9F7089560E1EBCF60E2E9CF60E479
:10028000E7CF60E8E5CF4030F1F04130F1F04230A7
:10029000F1F04330F1F04430F1F04530F1F0463008
:1002A000F1F04730F1F04830F1F04930F1F04A30E8
:1002B000F1F04B30F1F04C30F1F04D30F1F04E30C8
:1002C000F1F04F30F1F043E008954FE9089545E231
:1002D00008954DE0089549E9089549E4089541E4F9
:1002E00008954FE1089541E0089549E1089541E1FD
:1002F000089541EC089543E6089545E8089541E6E0
:10030000089541E708956FB676B00E9489016FBEE7
:100310001895C0E0D3E054E09FEF89910E949B01C3
:100320009A95D9F75A95C1F754E089910E949B019B
:100330005A95D9F708959091C00095FFFCCF80930E
:04034000C600089556
:00000001FF
